:020000040800F2
:10000000D02C00205D02000865020008670200088D
:10001000690200086B0200086D0200080000000081
:100020000000000000000000000000007D04000847
:1000300071020008000000001D0400089D04000873
:1000400077020008770200087702000877020008AC
:10005000770200087702000877020008770200089C
:10006000770200087702000877020008770200088C
:10007000770200087702000877020008770200087C
:10008000770200087702000877020008770200086C
:10009000770200087702000877020008770200085C
:1000A000770200087702000877020008770200084C
:1000B000770200087702000877020008770200083C
:1000C000770200087702000877020008770200082C
:1000D000770200087702000877020008770200081C
:1000E000770200087702000877020008770200080C
:1000F00077020008770200087702000877020008FC
:1001000077020008770200087702000877020008EB
:1001100077020008770200087702000877020008DB
:1001200077020008770200087702000877020008CB
:1001300077020008770200087702000877020008BB
:1001400077020008770200087702000877020008AB
:10015000770200087702000877020008770200089B
:10016000770200087702000877020008770200088B
:1001700077020008770200087702000800000000FC
:10018000770200087702000800F002F800F052F849
:1001900014A696E8000CB244B344DA4501D100F04D
:1001A00049F8BAE80F000FA696E83000A5EB040561
:1001B00004EB0607AAEB0704A7F101074FEA1515A0
:1001C0004FEA3414A4F10104AC4201D300F032F838
:1001D00013F0010F18BFFB1A43F0010300F001F800
:1001E000DBE7184790220000B0220000103A24BF3D
:1001F00078C878C1FAD8520724BF30C830C144BF8C
:1002000004680C6070470000704700000023002461
:1002100000250026103A28BF78C1FBD8520728BF16
:1002200030C148BF0B6070471FB500F0EBF81FBD31
:1002300010B510BD00F0ACF8114603B400F088FA18
:1002400003BCFFF7F1FF00F097FB00F0C6F803B422
:10025000FFF7EEFF03BC00F0CDF80000094880472F
:1002600009480047FEE7FEE7FEE7FEE7FEE7FEE798
:10027000FEE7FEE7FEE7FEE704480549054A064BB0
:1002800070470000ED05000889010008D026002015
:10029000D02C0020D0280020D0280020032A40F2B3
:1002A000308010F0030C00F0158011F8013BBCF118
:1002B000020F624498BF11F801CB00F8013B38BF30
:1002C00011F8013BA2F1040298BF00F801CB38BF3E
:1002D00000F8013B11F0030300F02880083AC0F059
:1002E000088051F8043B083A51F804CBA0E8081004
:1002F000F5E7121D5CBF51F8043B40F8043BAFF337
:100300000080D20724BF11F8013B11F801CB48BF90
:1003100011F8012B24BF00F8013B00F801CB48BFC6
:1003200000F8012B704770477047704710B5203AAE
:10033000C0F00B80B1E81850A0E81850B1E8185090
:10034000A0E81850203ABFF4F5AF5FEA027C24BF62
:10035000B1E81850A0E8185044BF18C918C0BDE84B
:1003600010405FEA827C24BF51F8043B40F8043B14
:1003700008BF7047D20728BF31F8023B48BF11F8C9
:10038000012B28BF20F8023B48BF00F8012B704723
:10039000754600F02BF8AE4605006946534620F03E
:1003A0000700854618B020B5FFF766FFBDE820407E
:1003B0004FF000064FF000074FF000084FF0000B21
:1003C000AC46ACE8C009ACE8C009ACE8C009ACE890
:1003D000C00921F007018D46704710B50446AFF300
:1003E00000802046BDE81040FFF731BF004870474D
:1003F0000800002001491820ABBEFEE726000200DD
:100400007047000080B502F005F8F1EE100A4EF6D4
:100410003C71CEF20001086080BD0000EFF309805E
:10042000BFF36F8F144B1A681EF0100F08BF20ED3A
:10043000108A20E9F04F10602DE909004FF080008C
:1004400080F31188BFF34F8FBFF36F8F00F0FEFE74
:100450004FF0000080F31188BDE8090019680868B2
:10046000B0E8F04F1EF0100F08BFB0EC108A80F318
:100470000988BFF36F8F704710020020064B196880
:100480000868B0E8F04F80F30988BFF36F8F4FF032
:10049000000080F3118870471002002080B54EF2F2
:1004A0001000CEF20000006801F028FB012803D004
:1004B000FFE700F067FFFFE780BD000086B0002186
:1004C00005910491022003900291019043F60800E7
:1004D000C4F20200006800F00C000590059800903E
:1004E00040B1FFE7009804280ED0FFE700980828E5
:1004F00014D059E040F20001C2F2000142F2004083
:10050000C0F2F400086059E040F20001C2F20001BC
:1005100047F64000C0F27D1008604FE043F604004B
:10052000C4F202000168C1F380510291006800F03A
:100530003F000190029888B1FFE7019947F640001B
:10054000C0F27D10B0FBF1F043F60401C4F20201E9
:100550000968C1F388114843049010E0019942F200
:100560000040C0F2F400B0FBF1F043F60401C4F225
:1005700002010968C1F3881148430490FFE743F67C
:100580000400C4F20200006800F44031022000EBD5
:10059000D130039004980399B0FBF1F040F20001D0
:1005A000C2F20001086009E040F20001C2F200015D
:1005B00042F20040C0F2F4000860FFE743F6080092
:1005C000C4F202000068C0B2010942F22E40C0F637
:1005D0000000405C0590059A40F20001C2F2000163
:1005E0000868D040086006B0704700004EF6885199
:1005F000CEF20001086840F4700008607047000007
:1006000080B582B0019000F0EDF958B1FFE700F03D
:10061000B9F838B1FFE7019800684FF0FF3101F0F9
:1006200009F9FFE702B080BD80B582B00190019862
:10063000006800F003FD00200090FFE70098042808
:100640001AD8FFE701980068009A40F2F811C2F248
:10065000000151F82210884209D1FFE7009A40F2C8
:10066000F811C2F20001002041F8220004E0FFE787
:10067000009801300090E1E702B080BD80B584B001
:1006800001900199002008600090FFE7009804287D
:1006900028D8FFE7009940F2F810C2F2000050F8A5
:1006A0002100D0B9FFE7009800EB800140F268001C
:1006B000C2F2000000EB0111012000F097FE01469C
:1006C000009A40F2F810C2F2000040F8221000999F
:1006D00050F821000199086004E0FFE7009801301C
:1006E0000090D3E70198006850B9FFE700F07AF96D
:1006F00030B1FFE7012000F065FE01990860FFE7D7
:1007000000200390039880F311880198006818B9BD
:10071000FFE70020029002E001200290FFE702982C
:1007200004B080BD80B582B0019000F05BF960B18B
:10073000FFE700F027F840B1FFE7019800680023C9
:1007400019461A4600F07CFFFFE702B080BD0000AA
:100750007047000082B00190FFE70198411E0191AF
:1007600070B1FFE700200090FFE700984EF65F2190
:10077000884204DCFFE7009801300090F5E7ECE7E1
:1007800002B0704782B0EFF305800190019818B174
:10079000FFE70120009002E000200090FFE70098B2
:1007A00002B0704781B043F63000C4F20200016825
:1007B00041F0060101600068009040F20041C4F27F
:1007C0000201086820F47C400860086840F4A840F2
:1007D000086040F60001C4F20201086820F47F407E
:1007E0000860086840F4AA40086040F21441C4F26E
:1007F0000201086820F0E000086001B070470000C6
:1008000080B582B08DF8070040F21441C4F20201B5
:10081000086820F020000860086820F040000860A8
:100820009DF80700000900F091F89DF8070000F01E
:100830000F0000F08BF80220FFF78CFF02B080BDA4
:1008400080B582B08DF8070040F21441C4F2020175
:10085000086840F0200008609DF80700000900F0DB
:1008600075F89DF8070000F00F0000F06FF8012008
:10087000FFF770FF02B080BD80B582B0FFF792FF36
:100880006420FFF767FF40F21441C4F202010868D8
:1008900020F0200008600320009000F057F80A20A4
:1008A000FFF758FF009800F051F801200190FFF782
:1008B00051FF009800F04AF80198FFF74BFF022023
:1008C00000F044F80520FFF745FF2820FFF798FFC8
:1008D0000F20FFF795FF0198FFF792FF1420FFF715
:1008E00039FF0620FFF78CFF02B080BD80B582B0D3
:1008F0000190FFE70198007838B1FFE70198411CAB
:1009000001910078FFF79CFFF4E702B080BD000082
:1009100080B582B040F21441C4F20201019108682E
:1009200020F08000086001200090FFF713FF00987E
:10093000019A116841F080011160FFF70BFF0199E6
:10094000086820F08000086002B080BD80B582B0E9
:100950008DF8070040F61401C4F20201086820F087
:10096000F0009DF8072002F00F0240EA0210086034
:10097000FFF7CEFF02B080BD80B584B000200390A9
:10098000FFF79CFDFFF778FF80200190FFF738FF0D
:1009900042F26640C0F60000FFF7A8FFC0200290B8
:1009A000FFF72EFF42F25840C0F60000FFF79EFF0F
:1009B0000120FFF725FF0198FFF722FF0198FFF7BD
:1009C0001FFF42F23E40C0F60000FFF78FFF029883
:1009D000FFF716FF42F24A40C0F60000FFF786FF1D
:1009E000FFE7FEE780B582B001F088F8022803D166
:1009F000FFE70120019002E000200190FFE701984D
:100A000002B080BD80B588B00790069142F2C46004
:100A1000C2F200000068049040F21420C2F200000C
:100A20000068039040F21820C2F2000000680290B3
:100A300040F21020C2F200000268002182F85A1031
:100A40000068043000F032FA08B9FFE700E0FFE781
:100A50000798013028BBFFE7069810B3FFE7FFE7D0
:100A600042F2B061C2F2000148680190019A40F27E
:100A70001020C2F2000003689A60019A926803682D
:100A8000DA6002680432019B9B685A600268043293
:100A9000019B9A6000684161086801300860FFE7C7
:100AA00035E00498079908440590059840F2102114
:100AB000C2F20001096848600598049988420AD288
:100AC000FFE7029840F21021C2F2000109680431E8
:100AD00000F030FA1AE0039840F21021C2F200014F
:100AE0000968043100F026FA059842F28C61C2F2DE
:100AF00000010968884207D2FFE7059842F28C613D
:100B0000C2F20001086000E0FFE7FFE7FFE708B07E
:100B100080BD000080B586B005900491039200204E
:100B200002900598806B01900598006C78B9FFE7FA
:100B30000598006848B9FFE70598806801F036F924
:100B4000029005990020886000E0FFE741E00398EB
:100B5000B8B9FFE7059A04995068126CFFF79EFB3D
:100B6000059948680A6C1044486005994868896886
:100B7000884204D3FFE705990868486000E0FFE772
:100B800026E0059A0499D068126CFFF787FB059957
:100B9000C8680A6C801AC86005980168C0688842F5
:100BA00006D2FFE7059988680A6C801AC86000E0E1
:100BB000FFE70398022809D1FFE7019820B1FFE77A
:100BC00001980138019000E0FFE700E0FFE7FFE750
:100BD000FFE70198013005998863029806B080BD4F
:100BE00082B001900198406A38B1FFE70198006B2C
:100BF0000068C0F13800009002E000200090FFE79C
:100C0000009802B07047000080B582B00190019852
:100C100068B1FFE7019800238360019803600198A1
:100C2000C360019819461A4600F00AFD00E0FFE78C
:100C300002B080BD80B584B0DDF818C00390029189
:100C400001928DF80330029818B9FFE7069800600A
:100C500003E0019806990860FFE703980699C863C6
:100C60000298069908640698012100F073FC9DF82B
:100C70000300069981F84C0004B080BD80B582B0B5
:100C8000019000F08DF90198806B18B9FFE7012001
:100C9000009002E000200090FFE700F0A5F9009826
:100CA00002B080BD80B582B0019000F079F9019862
:100CB000806B0199C96B884203D1FFE70120009046
:100CC00002E000200090FFE700F08EF9009802B0EB
:100CD00080BD000040F21420C2F2000000680068ED
:100CE00040B9FFE742F28C61C2F200014FF0FF30E1
:100CF00008600CE040F21420C2F200000068C068F6
:100D0000006842F28C61C2F200010860FFE77047A0
:100D100080B582B0019000F043F9019890F8450049
:100D20008DF80300FFE79DF90300012816DBFFE7BC
:100D30000198406A58B1FFE70198243001F074F936
:100D400018B1FFE700F0A4F900E0FFE700E005E0DC
:100D50009DF8030001388DF80300E4E70199FF20B6
:100D600081F8450000F040F900F01AF9019890F878
:100D700044008DF80200FFE79DF90200012816DB10
:100D8000FFE70198006980B1FFE70198103001F09A
:100D90004BF918B1FFE700F07BF900E0FFE79DF8A1
:100DA000020001388DF8020000E000E0E4E701995C
:100DB000FF2081F8440000F017F902B080BD000068
:100DC00080B584B00390002002909DF80C0040078D
:100DD000A8B1FFE7039800F00700C0F108000190F8
:100DE00003980199C943884205D8FFE70199039800
:100DF0000844039002E000200390FFE7FFE700F0C3
:100E00001DFA40F20C20C2F20000006868B9FFE74A
:100E100040F27C60C2F20000073020F0070040F290
:100E20000C21C2F200010860FFE7039838B3FFE726
:100E300042F28860C2F2000000680399C943884208
:100E40001DD8FFE742F28860C2F2000000680399F3
:100E5000084441F6F771884211D8FFE740F20C20B0
:100E6000C2F20000006842F28861C2F200010A6822
:100E700010440290039A086810440860FFE701F0EC
:100E8000A5F9029804B080BD81B040F21020C2F2F2
:100E9000000000680090009828B1FFE70099086DF5
:100EA00001300865FFE7009801B0704782B00190FB
:100EB00001980069009001984168806888600199F4
:100EC000486889684860009840680199884205D15F
:100ED000FFE7019880680099486000E0FFE701990A
:100EE00000200861009908680138086000980068CF
:100EF00002B0704782B001900091FFE700BEFFE7AB
:100F000002B0704781B00090009901F1080048607C
:100F100000994FF0FF308860009901F10800C86027
:100F2000009901F10800086100990020086001B0F3
:100F30007047000084B0039002910298006800900E
:100F40000098013020B9FFE703980069019010E094
:100F5000039808300190FFE7019840680068009905
:100F6000884205D8FFE7FFE7019840680190F3E762
:100F7000FFE70198406802994860029841688860DC
:100F80000198029988600298019948600398029933
:100F90000861039908680130086004B070470000D8
:100FA00081B04FF0800080F31188BFF36F8FBFF3E3
:100FB0004F8F009040F20400C2F20000016801313E
:100FC0000160006801280DD1FFE7FFE74EF60450ED
:100FD000CEF200000068000610B1FFE700BEFFE798
:100FE000FFE7FFE701B0704781B0FFE740F2040080
:100FF000C2F20000006810B9FFE700BEFFE7FFE79C
:1010000040F20400C2F2000001680139016000688A
:1010100030B9FFE700200090009880F31188FFE7C7
:1010200001B0704781B00090FFE7009810B1FFE772
:1010300000BEFFE7FFE701B07047000080B582B057
:10104000019001980090FFE7009810B9FFE700BEFB
:10105000FFE7FFE7009890F8460020B9FFE7009807
:10106000FFF7E0FF00E0FFE702B080BD81B0009035
:1010700042F29060C2F2000000680099086042F2FB
:10108000C460C2F2000000680099486001B0704777
:1010900042F2C861C2F200010120086070470000FE
:1010A00080B582B001900091FFE7019810B9FFE789
:1010B00000BEFFE7FFE7019840F21021C2F20001F5
:1010C00009681831FFF736FF00980121FFF79AFCF5
:1010D00002B080BD80B588B0079006910798059052
:1010E000012002900798002800F0A480FFE7FFE7A6
:1010F0000598006D10B9FFE700BEFFE7FFE7059810
:10110000C06C0699884203D2FFE70698039003E07B
:101110000598C06C0390FFE70598C06A0399884260
:1011200000F08680FFE70598006D012840F07E8082
:10113000FFE7FFE7059840F21021C2F200010968BD
:10114000884202D1FFE700BEFFE7FFE70598C06ACB
:10115000049003980599C8620598C07E000600288F
:1011600006D4FFE70398C0F138000599886100E0D4
:10117000FFE705984069049901EB810240F21C21C8
:10118000C2F2000101EB820188424DD1FFE70598D0
:101190000430FFF78BFE08B9FFE700E0FFE7FFE749
:1011A000FFE70598C06A42F28461C2F20001096853
:1011B000884208D9FFE70598C06A42F28461C2F20A
:1011C00000010860FFE7FFE7FFE70598C06A00EB52
:1011D000800040F21C21C2F2000101EB8000406857
:1011E00001900198059A906001988068059AD060F6
:1011F00005980430019A9268506005980430019A6D
:101200009060059AD06A00EB800001EB800050618D
:101210000598C06A00EB800251F82200013041F8C5
:101220002200FFE7FFE700E0FFE700E0FFE700E064
:10123000FFE700E0FFE708B080BD000042F28061F8
:10124000C2F20001086801300860704780B586B0BE
:1012500042F28060C2F20000006838B1FFE742F25B
:10126000C861C2F200010120086089E042F2C86151
:10127000C2F2000100200860FFE740F21021C2F234
:1012800000010868006B05904FF0A53004900868D5
:1012900000680968096B884218D9FFE7059800685B
:1012A000B0F1A53F12D1FFE705984068B0F1A53F26
:1012B0000CD1FFE705988068B0F1A53F06D1FFE7A4
:1012C0000598C068B0F1A53F0CD0FFE740F21020B0
:1012D000C2F2000001683431039100680399FFF7FE
:1012E00009FEFFE7FFE7FFE742F28460C2F2000079
:1012F00000680290FFE7029800EB800140F21C209A
:10130000C2F2000050F8210058B9FFE7FFE7029849
:1013100010B9FFE700BEFFE7FFE70298013802902F
:10132000E9E7FFE7029800EB800140F21C20C2F2DF
:10133000000000EB81000190019948684068486016
:10134000019948680831884204D1FFE70199C868CB
:101350004860FFE701984068C06840F21021C2F27F
:1013600000010860FFE7029842F28461C2F20001C6
:101370000860FFE740F21020C2F200000068FFE7BB
:1013800006B080BD80B582B04FF0800080F3118838
:10139000BFF36F8FBFF34F8F009000F0CBFB40B1D6
:1013A000FFE74EF60451CEF200014FF08050086086
:1013B00000E0FFE700200190019880F3118802B05F
:1013C00080BD000080B584B08DF80F000120019031
:1013D000002100919DF80F2000F022F80290029861
:1013E000FFF712FC029804B080BD000080B586B003
:1013F0008DF81700049101200290002201929DF8BF
:101400001710049BEC46CCF80010114600F052F87F
:1014100003900398FFF7F8FB039806B080BD000027
:1014200080B588B0079006918DF8172000200490B1
:101430000798A0B3FFE707994FF0FF30B0FBF1F03A
:10144000069988422BD3FFE707980699484310F185
:10145000510F24D8FFE70798069948430390039853
:101460005030FFF7ADFC04900498B0B1FFE704984A
:1014700002900298503002900499002081F84600B2
:1014800007980699029A9DF81730DDF810C0EE46CD
:10149000CEF800C0FFF7CEFB00E0FFE707E0FFE774
:1014A000049810B9FFE700BEFFE7FFE7FFE70498E5
:1014B00008B080BD80B588B084460A98CDF81CC0BD
:1014C0000691059204938DF80F0000200290FFE72B
:1014D000049810B9FFE700BEFFE7FFE7079868B37D
:1014E000FFE7049850B3FFE7059818B1FFE70698A7
:1014F00020B3FFE7059818B9FFE70698F0B9FFE7B2
:1015000050200190FFE70198502802D0FFE700BE6D
:10151000FFE7FFE70198049802900299012081F803
:10152000460007980699059A9DF80F30DDF808C027
:10153000EE46CEF800C0FFF77DFB07E0FFE702981C
:1015400010B9FFE700BEFFE7FFE7FFE7029808B02A
:1015500080BD000080B584B003900291012001900D
:1015600003980090FFE7009810B9FFE700BEFFE77F
:10157000FFE70098002856D0FFE70098C06B0028CE
:1015800051D0FFE70098C26B016C4FF0FF30B0FB09
:10159000F2F0884247D3FFE7FFF702FD00990B689E
:1015A000C86B0A6C00FB02308860009900208863D9
:1015B00000990868486000990B68C86B0A6C01388C
:1015C00000FB0230C8600099FF2081F844000099B8
:1015D00081F845000298D0B9FFE700980069A0B1F2
:1015E000FFE70098103000F01FFD60B1FFE74EF6F6
:1015F0000451CEF200014FF080500860BFF34F8FCE
:10160000BFF36F8F00E0FFE700E0FFE708E000981E
:101610001030FFF777FC00982430FFF773FCFFE7EA
:10162000FFF7E2FC02E000200190FFE7FFE70198EE
:1016300010B9FFE700BEFFE7FFE7019804B080BDE7
:1016400080B58EB00C900B910A92099300200890FF
:101650000C980490FFE7049810B9FFE700BEFFE77D
:10166000FFE7FFE70B990020039039B9FFE70498E3
:10167000006C002818BF01200390FFE70398C00703
:1016800010B1FFE700BEFFE7FFE7FFE70999002081
:101690000229029007D1FFE70498C06B013818BFF8
:1016A00001200290FFE70298C00710B1FFE700BEDB
:1016B000FFE7FFE7FFE700F021FA01460020019075
:1016C00031B9FFE70A98002818BF01200190FFE711
:1016D0000198C00710B1FFE700BEFFE7FFE7FFE793
:1016E000FFF75EFC0498806B0499C96B884204D3B1
:1016F000FFE70998022834D1FFE704980B99099A6B
:10170000FFF708FA07900498406AA0B1FFE7049831
:10171000243000F089FC60B1FFE74EF60451CEF2B0
:1017200000014FF080500860BFF34F8FBFF36F8F01
:1017300000E0FFE710E0079860B1FFE74EF60451C4
:10174000CEF200014FF080500860BFF34F8FBFF31F
:101750006F8F00E0FFE7FFE7FFF746FC01200D90E9
:1017600065E00A9828B9FFE7FFF73EFC00200D90DE
:101770005DE0089830B9FFE705A8FFF777FC012086
:10178000089000E0FFE7FFE7FFE7FFF72DFCFFF71A
:1017900055FDFFF705FC049890F94400013028B985
:1017A000FFE70499002081F84400FFE7049890F9CE
:1017B0004500013028B9FFE70499002081F8450071
:1017C000FFE7FFF711FC05A80AA900F027F928BBDD
:1017D000FFE70498FFF766FAC8B1FFE704981030F6
:1017E0000A99FFF75DFC0498FFF792FA00F0EEFC0F
:1017F00060B9FFE74EF60451CEF200014FF0805081
:101800000860BFF34F8FBFF36F8FFFE705E00498C9
:10181000FFF77EFA00F0DAFCFFE707E00498FFF735
:1018200077FA00F0D3FC00200D9000E058E70D9807
:101830000EB080BD80B58CB00A9009910020089050
:101840000A9905910490FFE7059810B9FFE700BEDB
:10185000FFE7FFE7FFE70598006C10B1FFE700BE68
:10186000FFE7FFE7FFE700F049F90146002001909C
:1018700031B9FFE70998002818BF01200190FFE760
:101880000198C00710B1FFE700BEFFE7FFE7FFE7E1
:10189000FFF786FB0598806B0390039860B3FFE722
:1018A00003980138059988630598006828B9FFE70F
:1018B000FFF7EAFA0599886000E0FFE705980069FC
:1018C000A0B1FFE70598103000F0AEFB60B1FFE774
:1018D0004EF60451CEF200014FF080500860BFF385
:1018E0004F8FBFF36F8F00E0FFE700E0FFE7FFF7E8
:1018F0007BFB01200B908DE0099828B9FFE7FFF7EB
:1019000073FB00200B9085E0089830B9FFE706A82C
:10191000FFF7ACFB0120089000E0FFE7FFE7FFE7DF
:10192000FFF762FBFFF78AFCFFF73AFB059890F997
:101930004400013028B9FFE70599002081F84400F0
:10194000FFE7059890F94500013028B9FFE70599B0
:10195000002081F84500FFE7FFF746FB06A809A92C
:1019600000F05CF8A8BBFFE70598FFF787F948B3DC
:10197000FFE70598006850B9FFE7FFF711FB0598EE
:10198000806800F0A3FA0490FFF72EFB00E0FFE769
:10199000059824300999FFF783FB0598FFF7B8F9FC
:1019A00000F014FC60B9FFE74EF60451CEF20001DE
:1019B0004FF080500860BFF34F8FBFF36F8F00E090
:1019C000FFE705E00598FFF7A3F900F0FFFBFFE74D
:1019D0001FE00598FFF79CF900F0F8FB0598FFF76A
:1019E0004DF9A0B1FFE7049870B1FFE7FFF7D8FA0F
:1019F0000598FFF7F5F80290059880680299FFF7BF
:101A000069FBFFF7F1FAFFE700200B9002E0FFE728
:101A1000FFE73DE70B980CB080BD000080B586B0B5
:101A200005900491FFE7059810B9FFE700BEFFE7B6
:101A3000FFE7FFE7049810B9FFE700BEFFE7FFE705
:101A4000FFF7AEFA42F2C460C2F2000000680290F2
:101A5000029805994968401A019040F21020C2F29C
:101A60000000006890F85A0058B1FFE740F21020DB
:101A7000C2F200000168002081F85A0001200390A2
:101A800037E004980068013018B9FFE700200390A0
:101A90002EE042F29060C2F20000006805990968E9
:101AA00088420CD0FFE7029805994968884206D31E
:101AB000FFE70120039004990020086017E00198D7
:101AC0000499096888420BD2FFE7019A04990868D3
:101AD000801A08600598FFF7C9FA0020039005E016
:101AE00004990020086001200390FFE7FFE7FFE76B
:101AF000FFE7FFF779FA039806B080BD81B042F2A4
:101B0000AC60C2F20000006818B9FFE70120009045
:101B10000DE042F28060C2F20000006818B9FFE7F1
:101B20000220009002E000200090FFE7FFE700980D
:101B300001B0704780B588B00020059042F2806007
:101B4000C2F200000068002840F02481FFE742F262
:101B5000C461C2F200010868013004900498086072
:101B6000049830BBFFE7FFE7FFE740F21420C2F222
:101B700000000068006810B1FFE700BEFFE7FFE764
:101B800040F21422C2F200021068039040F21821C1
:101B9000C2F20001086810600398086042F2906188
:101BA000C2F20001086801300860FFF793F8FFE710
:101BB00000E0FFE7049842F28C61C2F2000109687C
:101BC0008842C0F0C680FFE7FFE740F21420C2F26F
:101BD00000000068006840B9FFE742F28C61C2F281
:101BE00000014FF0FF300860B2E040F21420C2F272
:101BF00000000068C068C0680790079840680690B9
:101C000004980699884207D2FFE7069842F28C6151
:101C1000C2F2000108609BE0FFE7FFE70798406918
:101C2000029007988168C068886007998868C968C9
:101C300048600298406807990431884205D1FFE75F
:101C40000798C06802994860FFE70799002048613B
:101C50000299086801380860FFE70798806A08B3AE
:101C6000FFE7FFE70798806A01900798C169006A5B
:101C700088600799C869096A4860019840680799AF
:101C80001831884205D1FFE70798006A019948603A
:101C9000FFE7079900208862019908680138086009
:101CA000FFE700E0FFE7FFE7FFE70798C06A42F2BF
:101CB0008461C2F200010968884208D9FFE70798E9
:101CC000C06A42F28461C2F200010860FFE7FFE7E8
:101CD000FFE70798C06A00EB800040F21C21C2F2C7
:101CE000000101EB8000406800900098079A906026
:101CF00000988068079AD06007980430009A92682C
:101D0000506007980430009A9060079AD06A00EB00
:101D1000800001EB800050610798C06A00EB8002F0
:101D200051F82200013041F82200FFE7FFE7079851
:101D3000C06A40F21021C2F200010968C96A8842F3
:101D400003D9FFE70120059000E0FFE7FFE73CE74C
:101D5000FFE740F21020C2F200000068C06A00EB0A
:101D6000800140F21C20C2F2000050F8210002283D
:101D700003D3FFE70120059000E0FFE742F2C860CF
:101D8000C2F20000006818B1FFE70120059000E0F2
:101D9000FFE707E042F29461C2F2000108680130F7
:101DA0000860FFE7059808B080BD000080B584B0EA
:101DB000039003980290002001900398002800F0FF
:101DC0008080FFE7FFE7029840F21021C2F2000195
:101DD0000968884202D0FFE700BEFFE7FFE7FFE7A0
:101DE0000298006D10B9FFE700BEFFE7FFE7029918
:101DF000086D013808650299C86AC96C88425ED0CE
:101E0000FFE70298006D002857D1FFE702980430E1
:101E1000FFF74CF808B9FFE700E0FFE70299C86C4C
:101E2000C8620299C86AC0F138008861FFE7FFE71D
:101E30000298C06A42F28461C2F2000109688842D5
:101E400008D9FFE70298C06A42F28461C2F2000139
:101E50000860FFE7FFE7FFE70298C06A00EB800039
:101E600040F21C21C2F2000101EB800040680090AA
:101E70000098029A906000988068029AD060029858
:101E80000430009A9268506002980430009A906082
:101E9000029AD06A00EB800001EB8000506102984A
:101EA000C06A00EB800251F82200013041F82200A4
:101EB000FFE7FFE70120019000E0FFE700E0FFE718
:101EC00000E0FFE7019804B080BD000080B584B059
:101ED000039003980290002001900398002800F0DE
:101EE0009F80FFE70298C06A40F21021C2F2000111
:101EF0000968C96A884280F08280FFE70298C07E44
:101F0000000600280BD4FFE740F21020C2F20000C8
:101F10000068C06AC0F138000299886100E0FFE7FC
:101F200002994869C96A01EB810240F21C21C2F2A0
:101F3000000101EB8201884255D1FFE7029804308D
:101F4000FEF7B4FF08B9FFE700E0FFE740F210201A
:101F5000C2F200000068C06A0299C862FFE7FFE7AA
:101F60000298C06A42F28461C2F2000109688842A4
:101F700008D9FFE70298C06A42F28461C2F2000108
:101F80000860FFE7FFE7FFE70298C06A00EB800008
:101F900040F21C21C2F2000101EB80004068009079
:101FA0000098029A906000988068029AD060029827
:101FB0000430009A9268506002980430009A906051
:101FC000029AD06A00EB800001EB80005061029819
:101FD000C06A00EB800251F82200013041F8220073
:101FE000FFE7FFE708E040F21020C2F200000068BF
:101FF000C06A0299C862FFE7012001900FE00298D1
:10200000C06C40F21021C2F200010968C96A88421E
:1020100003D2FFE70120019000E0FFE7FFE700E0C7
:10202000FFE7019804B080BD87B006900698C068AD
:10203000C0680590FFE7059810B9FFE700BEFFE70D
:10204000FFE7FFE70598806A03900598C169006A79
:1020500088600599C869096A4860039840680599CD
:102060001831884205D1FFE70598006A0399486056
:10207000FFE7059900208862039908680138086025
:10208000FFE742F28060C2F200000068002865D1DC
:10209000FFE7FFE705984069029005988168C068EE
:1020A000886005998868C968486002984068059901
:1020B0000431884205D1FFE70598C068029948605D
:1020C000FFE7059900204861029908680138086017
:1020D000FFE7FFE7FFE70598C06A42F28461C2F2BA
:1020E00000010968884208D9FFE70598C06A42F2F2
:1020F0008461C2F200010860FFE7FFE7FFE705988F
:10210000C06A00EB800040F21C21C2F2000101EB2A
:102110008000406801900198059A9060019880685D
:10212000059AD06005980430019A9268506005982D
:102130000430019A9060059AD06A00EB800001EBB0
:10214000800050610598C06A00EB800251F82200BF
:10215000013041F82200FFE7FFE71DE0FFE742F210
:102160009861C2F20001486800900098059AD06119
:1021700000988068059A106205981830009A926855
:10218000506005981830009A906005988162086840
:1021900001300860FFE7FFE70598C06A40F21021B0
:1021A000C2F200010968C96A884208D9FFE7012024
:1021B000049042F2C861C2F20001086002E000200F
:1021C0000490FFE7049807B07047000080B588B01E
:1021D0000020009007900690FEF7E2FE0098059020
:1021E000FFE742F28060C2F20000006810B9FFE72A
:1021F00000BEFFE7FFE742F28060C2F20000016824
:10220000013901600068002840F0FE80FFE742F2DB
:102210007C60C2F200000068002800F0F480FFE754
:10222000FFE742F29860C2F200000068002800F068
:10223000A080FFE742F29860C2F20000C068C06868
:102240000790FFE70798806A04900798C169006AC1
:1022500088600799C869096A4860049840680799C6
:102260001831884205D1FFE70798006A0499486051
:10227000FFE7079900208862049908680138086020
:10228000FFE7FFE707984069039007988168C068F7
:10229000886007998868C96848600398406807990A
:1022A0000431884205D1FFE70798C0680399486068
:1022B000FFE7079900204861039908680138086022
:1022C000FFE7FFE7FFE70798C06A42F28461C2F2C6
:1022D00000010968884208D9FFE70798C06A42F2FE
:1022E0008461C2F200010860FFE7FFE7FFE707989B
:1022F000C06A00EB800040F21C21C2F2000101EB39
:102300008000406802900298079A90600298806866
:10231000079AD06007980430029A92685060079834
:102320000430029A9060079AD06A00EB800001EBBB
:10233000800050610798C06A00EB800251F82200CB
:10234000013041F82200FFE7FFE70798C06A40F23A
:102350001021C2F200010968C96A884207D9FFE763
:1023600042F2C861C2F200010120086000E0FFE70C
:1023700057E7079818B1FFE7FEF7ACFCFFE742F21A
:102380009460C2F20000006801900198E0B1FFE79C
:10239000FFE7FFF7CFFB38B1FFE742F2C861C2F2B7
:1023A00000010120086000E0FFE70198013801907A
:1023B000FFE701980028ECD1FFE742F29461C2F2F6
:1023C00000010020086000E0FFE742F2C860C2F2AE
:1023D00000000068A8B1FFE701200690FFE740F287
:1023E0001020C2F2000000684EF60451CEF2000147
:1023F0004FF080500860BFF34F8FBFF36F8FFFE740
:1024000000E0FFE7FFE700E0FFE7FEF7EDFD0698DD
:1024100008B080BDF1EE100A4FF6FF71C0F2C03176
:1024200020EA010040F04070E1EE100A7047000021
:1024300000000000000001020304060708094D59CE
:10244000204E414D452049532000524545544553A7
:102450004820282A5F2A290048454C4C49534820E7
:10246000574F524C440057454C434F4D4520544F15
:10247000204D5900942400080000002008000000AE
:10248000EC0100089C24000808000020C82C000073
:0C2490000C0200080024F400AAAAAAAA6A
:040000050800025D90
:00000001FF
